{"_format":"hh-sol-artifact-1","contractName":"Greeter99","sourceName":"contracts/Greeter99.sol","abi":[{"inputs":[{"internalType":"string","name":"_greeting","type":"string"},{"internalType":"int256","name":"_ourNum","type":"int256"}],"stateMutability":"nonpayable","type":"constructor"},{"inputs":[],"name":"greet","outputs":[{"internalType":"string","name":"","type":"string"}],"stateMutability":"view","type":"function"},{"inputs":[{"internalType":"string","name":"_greeting","type":"string"}],"name":"setGreeting","outputs":[],"stateMutability":"nonpayable","type":"function"}],"bytecode":"0x60806040523480156200001157600080fd5b506040516200081a3803806200081a833981810160405281019062000037919062000198565b81600090805190602001906200004f9291906200005f565b5080600181905550505062000386565b8280546200006d9062000291565b90600052602060002090601f016020900481019282620000915760008555620000dd565b82601f10620000ac57805160ff1916838001178555620000dd565b82800160010185558215620000dd579182015b82811115620000dc578251825591602001919060010190620000bf565b5b509050620000ec9190620000f0565b5090565b5b808211156200010b576000816000905550600101620000f1565b5090565b60006200012662000120846200021b565b620001f2565b9050828152602081018484840111156200013f57600080fd5b6200014c8482856200025b565b509392505050565b60008151905062000165816200036c565b92915050565b600082601f8301126200017d57600080fd5b81516200018f8482602086016200010f565b91505092915050565b60008060408385031215620001ac57600080fd5b600083015167ffffffffffffffff811115620001c757600080fd5b620001d5858286016200016b565b9250506020620001e88582860162000154565b9150509250929050565b6000620001fe62000211565b90506200020c8282620002c7565b919050565b6000604051905090565b600067ffffffffffffffff8211156200023957620002386200032c565b5b62000244826200035b565b9050602081019050919050565b6000819050919050565b60005b838110156200027b5780820151818401526020810190506200025e565b838111156200028b576000848401525b50505050565b60006002820490506001821680620002aa57607f821691505b60208210811415620002c157620002c0620002fd565b5b50919050565b620002d2826200035b565b810181811067ffffffffffffffff82111715620002f457620002f36200032c565b5b80604052505050565b7f4e487b7100000000000000000000000000000000000000000000000000000000600052602260045260246000fd5b7f4e487b7100000000000000000000000000000000000000000000000000000000600052604160045260246000fd5b6000601f19601f8301169050919050565b620003778162000251565b81146200038357600080fd5b50565b61048480620003966000396000f3fe608060405234801561001057600080fd5b50600436106100365760003560e01c8063a41368621461003b578063cfae321714610057575b600080fd5b6100556004803603810190610050919061022c565b610075565b005b61005f61008f565b60405161006c91906102a6565b60405180910390f35b806000908051906020019061008b929190610121565b5050565b60606000805461009e9061037c565b80601f01602080910402602001604051908101604052809291908181526020018280546100ca9061037c565b80156101175780601f106100ec57610100808354040283529160200191610117565b820191906000526020600020905b8154815290600101906020018083116100fa57829003601f168201915b5050505050905090565b82805461012d9061037c565b90600052602060002090601f01602090048101928261014f5760008555610196565b82601f1061016857805160ff1916838001178555610196565b82800160010185558215610196579182015b8281111561019557825182559160200191906001019061017a565b5b5090506101a391906101a7565b5090565b5b808211156101c05760008160009055506001016101a8565b5090565b60006101d76101d2846102ed565b6102c8565b9050828152602081018484840111156101ef57600080fd5b6101fa84828561033a565b509392505050565b600082601f83011261021357600080fd5b81356102238482602086016101c4565b91505092915050565b60006020828403121561023e57600080fd5b600082013567ffffffffffffffff81111561025857600080fd5b61026484828501610202565b91505092915050565b60006102788261031e565b6102828185610329565b9350610292818560208601610349565b61029b8161043d565b840191505092915050565b600060208201905081810360008301526102c0818461026d565b905092915050565b60006102d26102e3565b90506102de82826103ae565b919050565b6000604051905090565b600067ffffffffffffffff8211156103085761030761040e565b5b6103118261043d565b9050602081019050919050565b600081519050919050565b600082825260208201905092915050565b82818337600083830152505050565b60005b8381101561036757808201518184015260208101905061034c565b83811115610376576000848401525b50505050565b6000600282049050600182168061039457607f821691505b602082108114156103a8576103a76103df565b5b50919050565b6103b78261043d565b810181811067ffffffffffffffff821117156103d6576103d561040e565b5b80604052505050565b7f4e487b7100000000000000000000000000000000000000000000000000000000600052602260045260246000fd5b7f4e487b7100000000000000000000000000000000000000000000000000000000600052604160045260246000fd5b6000601f19601f830116905091905056fea26469706673582212204ca53fc11f42cee096aa0d25f58fc9dfbf216011f65e4a91d0942ee9e43fbd8364736f6c63430008040033","linkReferences":{},"deployedLinkReferences":{},"source":"//SPDX-License-Identifier: Unlicense\npragma solidity ^0.8.0;\n\n// import \"hardhat/console.sol\";\n\ncontract Greeter99 {\n    string private greeting;\n    int private ourNum;\n\n    constructor(string memory _greeting, int _ourNum) {\n        // console.log(\"Deploying a Greeter with greeting:\", _greeting);\n        greeting = _greeting;\n        ourNum = _ourNum;\n    }\n\n    function greet() public view returns (string memory) {\n        return greeting;\n    }\n\n    function setGreeting(string memory _greeting) public {\n        // console.log(\"Changing greeting from '%s' to '%s'\", greeting, _greeting);\n        greeting = _greeting;\n    }\n}\n"}