{"_format":"hh-sol-artifact-1","contractName":"TestInts20","sourceName":"contracts/testInts20.sol","abi":[{"inputs":[{"internalType":"int256","name":"_int1","type":"int256"},{"internalType":"int256","name":"_int2","type":"int256"},{"internalType":"string","name":"_ourString","type":"string"}],"stateMutability":"nonpayable","type":"constructor"},{"inputs":[],"name":"int1","outputs":[{"internalType":"int256","name":"","type":"int256"}],"stateMutability":"view","type":"function"}],"bytecode":"0x608060405234801561001057600080fd5b506040516104223803806104228339818101604052810190610032919061017f565b8260008190555081600181905550806002908051906020019061005692919061005f565b50505050610362565b82805461006b90610279565b90600052602060002090601f01602090048101928261008d57600085556100d4565b82601f106100a657805160ff19168380011785556100d4565b828001600101855582156100d4579182015b828111156100d35782518255916020019190600101906100b8565b5b5090506100e191906100e5565b5090565b5b808211156100fe5760008160009055506001016100e6565b5090565b60006101156101108461020b565b6101e6565b90508281526020810184848401111561012d57600080fd5b610138848285610246565b509392505050565b60008151905061014f8161034b565b92915050565b600082601f83011261016657600080fd5b8151610176848260208601610102565b91505092915050565b60008060006060848603121561019457600080fd5b60006101a286828701610140565b93505060206101b386828701610140565b925050604084015167ffffffffffffffff8111156101d057600080fd5b6101dc86828701610155565b9150509250925092565b60006101f0610201565b90506101fc82826102ab565b919050565b6000604051905090565b600067ffffffffffffffff8211156102265761022561030b565b5b61022f8261033a565b9050602081019050919050565b6000819050919050565b60005b83811015610264578082015181840152602081019050610249565b83811115610273576000848401525b50505050565b6000600282049050600182168061029157607f821691505b602082108114156102a5576102a46102dc565b5b50919050565b6102b48261033a565b810181811067ffffffffffffffff821117156102d3576102d261030b565b5b80604052505050565b7f4e487b7100000000000000000000000000000000000000000000000000000000600052602260045260246000fd5b7f4e487b7100000000000000000000000000000000000000000000000000000000600052604160045260246000fd5b6000601f19601f8301169050919050565b6103548161023c565b811461035f57600080fd5b50565b60b2806103706000396000f3fe6080604052348015600f57600080fd5b506004361060275760003560e01c8062aadd0f14602c575b600080fd5b60326046565b604051603d91906059565b60405180910390f35b60005481565b6053816072565b82525050565b6000602082019050606c6000830184604c565b92915050565b600081905091905056fea2646970667358221220b5d2a7743e0977545b86f47a715e1e653a866e3c92f2079ec5ed80a6ff00f38364736f6c63430008040033","linkReferences":{},"deployedLinkReferences":{},"source":"//SPDX-License-Identifier: Unlicense\npragma solidity ^0.8.0;\n\n// import \"hardhat/console.sol\";\n\ncontract TestInts20 {\n    int public int1;\n    int private int2;\n    string private ourString;\n\n    constructor(int _int1, int _int2, string memory _ourString) {\n        // console.log(\"Deploying a Greeter with greeting:\", _greeting);\n        int1 = _int1;\n        int2 = _int2;\n        ourString = _ourString;\n    }\n}\n"}