{"_format":"hh-sol-artifact-1","contractName":"TestContractChanged","sourceName":"contracts/TestContractChanged.sol","abi":[{"inputs":[{"internalType":"uint256","name":"_ourNum","type":"uint256"},{"internalType":"string","name":"_ourString","type":"string"}],"stateMutability":"nonpayable","type":"constructor"},{"inputs":[{"internalType":"address[]","name":"first","type":"address[]"}],"name":"addressArr","outputs":[],"stateMutability":"nonpayable","type":"function"},{"inputs":[{"internalType":"uint256[]","name":"first","type":"uint256[]"}],"name":"anArr","outputs":[],"stateMutability":"nonpayable","type":"function"},{"inputs":[{"components":[{"internalType":"string","name":"name","type":"string"},{"internalType":"uint256","name":"age","type":"uint256"},{"components":[{"internalType":"string","name":"street","type":"string"},{"internalType":"uint256","name":"number","type":"uint256"},{"internalType":"string","name":"town","type":"string"}],"internalType":"struct TestContractChanged.Addr","name":"addr","type":"tuple"}],"internalType":"struct TestContractChanged.Person","name":"person","type":"tuple"},{"internalType":"string","name":"_bundleHash","type":"string"},{"internalType":"string","name":"_bundlePath","type":"string"}],"name":"clientContainer","outputs":[],"stateMutability":"nonpayable","type":"function"},{"inputs":[],"name":"getNum","outputs":[{"internalType":"uint256","name":"","type":"uint256"}],"stateMutability":"view","type":"function"},{"inputs":[],"name":"getString","outputs":[{"internalType":"string","name":"","type":"string"}],"stateMutability":"view","type":"function"},{"inputs":[{"internalType":"uint256[][]","name":"first","type":"uint256[][]"}],"name":"nestedArr0","outputs":[],"stateMutability":"nonpayable","type":"function"},{"inputs":[{"internalType":"uint256[][5]","name":"first","type":"uint256[][5]"}],"name":"nestedArr1","outputs":[],"stateMutability":"nonpayable","type":"function"},{"inputs":[{"internalType":"uint256[4][]","name":"first","type":"uint256[4][]"}],"name":"nestedArr2","outputs":[],"stateMutability":"nonpayable","type":"function"},{"inputs":[{"internalType":"uint256[3][3]","name":"first","type":"uint256[3][3]"}],"name":"nestedArr3","outputs":[],"stateMutability":"nonpayable","type":"function"},{"inputs":[{"internalType":"uint256[3][3]","name":"first","type":"uint256[3][3]"},{"internalType":"string","name":"_bundleHash","type":"string"}],"name":"nestedArr4","outputs":[],"stateMutability":"nonpayable","type":"function"},{"inputs":[],"name":"nowT","outputs":[],"stateMutability":"nonpayable","type":"function"},{"inputs":[{"internalType":"uint256","name":"_ourNum","type":"uint256"}],"name":"setNum","outputs":[],"stateMutability":"nonpayable","type":"function"},{"inputs":[{"internalType":"string","name":"_ourString","type":"string"}],"name":"setString","outputs":[],"stateMutability":"nonpayable","type":"function"},{"inputs":[{"components":[{"internalType":"string","name":"name","type":"string"},{"internalType":"uint256","name":"age","type":"uint256"},{"components":[{"internalType":"string","name":"street","type":"string"},{"internalType":"uint256","name":"number","type":"uint256"},{"internalType":"string","name":"town","type":"string"}],"internalType":"struct TestContractChanged.Addr","name":"addr","type":"tuple"}],"internalType":"struct TestContractChanged.Person[]","name":"people","type":"tuple[]"},{"internalType":"bool","name":"test_bool","type":"bool"}],"name":"structTest1","outputs":[],"stateMutability":"nonpayable","type":"function"},{"inputs":[{"components":[{"internalType":"string","name":"name","type":"string"},{"internalType":"uint256","name":"age","type":"uint256"},{"components":[{"internalType":"string","name":"street","type":"string"},{"internalType":"uint256","name":"number","type":"uint256"},{"internalType":"string","name":"town","type":"string"}],"internalType":"struct TestContractChanged.Addr","name":"addr","type":"tuple"}],"internalType":"struct TestContractChanged.Person","name":"person","type":"tuple"},{"internalType":"bool","name":"test_bool","type":"bool"}],"name":"structTest2","outputs":[],"stateMutability":"nonpayable","type":"function"},{"inputs":[{"components":[{"internalType":"string","name":"name","type":"string"},{"internalType":"uint256","name":"age","type":"uint256"},{"components":[{"internalType":"string","name":"street","type":"string"},{"internalType":"uint256","name":"number","type":"uint256"},{"internalType":"string","name":"town","type":"string"}],"internalType":"struct TestContractChanged.Addr[]","name":"addrs","type":"tuple[]"}],"internalType":"struct TestContractChanged.AddressPerson","name":"person","type":"tuple"},{"internalType":"string","name":"_bundleHash","type":"string"}],"name":"structTest3","outputs":[],"stateMutability":"nonpayable","type":"function"},{"inputs":[{"components":[{"internalType":"string","name":"name","type":"string"},{"internalType":"uint256","name":"age","type":"uint256"},{"components":[{"internalType":"string","name":"street","type":"string"},{"internalType":"uint256","name":"number","type":"uint256"},{"internalType":"string","name":"town","type":"string"}],"internalType":"struct TestContractChanged.Addr[]","name":"addrs","type":"tuple[]"}],"internalType":"struct TestContractChanged.AddressPerson[]","name":"persons","type":"tuple[]"},{"internalType":"string","name":"_bundleHash","type":"string"}],"name":"structTest4","outputs":[],"stateMutability":"nonpayable","type":"function"},{"inputs":[{"components":[{"internalType":"string","name":"name","type":"string"},{"internalType":"uint256","name":"age","type":"uint256"},{"components":[{"internalType":"string","name":"street","type":"string"},{"internalType":"uint256","name":"number","type":"uint256"},{"internalType":"string","name":"town","type":"string"}],"internalType":"struct TestContractChanged.Addr","name":"addr","type":"tuple"}],"internalType":"struct TestContractChanged.Person","name":"person","type":"tuple"},{"internalType":"string","name":"_bundleHash","type":"string"}],"name":"structTest5","outputs":[],"stateMutability":"nonpayable","type":"function"},{"inputs":[{"internalType":"uint256[]","name":"first","type":"uint256[]"},{"internalType":"uint256[]","name":"second","type":"uint256[]"}],"name":"twoArrs","outputs":[],"stateMutability":"nonpayable","type":"function"}],"bytecode":"0x60806040523480156200001157600080fd5b50604051620019fa380380620019fa833981810160405281019062000037919062000198565b816000819055508060019080519060200190620000569291906200005f565b50505062000347565b8280546200006d9062000299565b90600052602060002090601f016020900481019282620000915760008555620000dd565b82601f10620000ac57805160ff1916838001178555620000dd565b82800160010185558215620000dd579182015b82811115620000dc578251825591602001919060010190620000bf565b5b509050620000ec9190620000f0565b5090565b5b808211156200010b576000816000905550600101620000f1565b5090565b600062000126620001208462000226565b620001f2565b9050828152602081018484840111156200013f57600080fd5b6200014c84828562000263565b509392505050565b600082601f8301126200016657600080fd5b8151620001788482602086016200010f565b91505092915050565b60008151905062000192816200032d565b92915050565b60008060408385031215620001ac57600080fd5b6000620001bc8582860162000181565b925050602083015167ffffffffffffffff811115620001da57600080fd5b620001e88582860162000154565b9150509250929050565b6000604051905081810181811067ffffffffffffffff821117156200021c576200021b620002fe565b5b8060405250919050565b600067ffffffffffffffff821115620002445762000243620002fe565b5b601f19601f8301169050602081019050919050565b6000819050919050565b60005b838110156200028357808201518184015260208101905062000266565b8381111562000293576000848401525b50505050565b60006002820490506001821680620002b257607f821691505b60208210811415620002c957620002c8620002cf565b5b50919050565b7f4e487b7100000000000000000000000000000000000000000000000000000000600052602260045260246000fd5b7f4e487b7100000000000000000000000000000000000000000000000000000000600052604160045260246000fd5b620003388162000259565b81146200034457600080fd5b50565b6116a380620003576000396000f3fe608060405234801561001057600080fd5b50600436106101215760003560e01c806389ea642f116100ad578063d312a9d811610071578063d312a9d8146102a0578063db3ebcf9146102bc578063e1bce28c146102d8578063fc05f18b146102f4578063ff9f51ad1461031057610121565b806389ea642f14610212578063a061b36914610230578063ba28a2a81461024c578063cd16ecbf14610268578063cd9d4f101461028457610121565b806342e9591d116100f457806342e9591d1461018457806347fb8c0a146101a057806367e0badb146101bc5780636b1a62f0146101da5780637fcaf666146101f657610121565b80632175067f1461012657806326e9a645146101305780633ed622fb1461014c5780634243fe5c14610168575b600080fd5b61012e61032c565b005b61014a60048036038101906101459190611043565b61032e565b005b61016660048036038101906101619190610d52565b610332565b005b610182600480360381019061017d9190610d7c565b610335565b005b61019e60048036038101906101999190610e95565b610339565b005b6101ba60048036038101906101b59190611103565b61033d565b005b6101c4610341565b6040516101d19190611299565b60405180910390f35b6101f460048036038101906101ef9190610f55565b61034a565b005b610210600480360381019061020b9190611002565b61034d565b005b61021a610367565b6040516102279190611277565b60405180910390f35b61024a60048036038101906102459190610d11565b6103f9565b005b61026660048036038101906102619190610e54565b6103fc565b005b610282600480360381019061027d9190611206565b6103ff565b005b61029e60048036038101906102999190610dd2565b610409565b005b6102ba60048036038101906102b591906110af565b61040c565b005b6102d660048036038101906102d1919061116f565b610410565b005b6102f260048036038101906102ed9190610f01565b610415565b005b61030e60048036038101906103099190610f96565b610419565b005b61032a60048036038101906103259190610e13565b61041d565b005b565b5050565b50565b5050565b5050565b5050565b60008054905090565b50565b8060019080519060200190610363929190610420565b5050565b60606001805461037690611587565b80601f01602080910402602001604051908101604052809291908181526020018280546103a290611587565b80156103ef5780601f106103c4576101008083540402835291602001916103ef565b820191906000526020600020905b8154815290600101906020018083116103d257829003601f168201915b5050505050905090565b50565b50565b8060008190555050565b50565b5050565b505050565b5050565b5050565b50565b82805461042c90611587565b90600052602060002090601f01602090048101928261044e5760008555610495565b82601f1061046757805160ff1916838001178555610495565b82800160010185558215610495579182015b82811115610494578251825591602001919060010190610479565b5b5090506104a291906104a6565b5090565b5b808211156104bf5760008160009055506001016104a7565b5090565b60006104d66104d1846112e5565b6112b4565b905080838252602082019050828560208602820111156104f557600080fd5b60005b85811015610525578161050b8882610936565b8452602084019350602083019250506001810190506104f8565b5050509392505050565b600061054261053d84611311565b6112b4565b9050808285606086028201111561055857600080fd5b60005b85811015610588578161056e8882610a95565b84526020840193506060830192505060018101905061055b565b5050509392505050565b60006105a56105a084611337565b6112b4565b905080838252602082019050828560808602820111156105c457600080fd5b60005b858110156105f457816105da8882610abc565b8452602084019350608083019250506001810190506105c7565b5050509392505050565b600061061161060c84611363565b6112b4565b9050808260005b85811015610648578135850161062e8882610ae3565b845260208401935060208301925050600181019050610618565b5050509392505050565b600061066561066084611389565b6112b4565b9050808382526020820190508260005b858110156106a5578135850161068b8882610ae3565b845260208401935060208301925050600181019050610675565b5050509392505050565b60006106c26106bd846113b5565b6112b4565b9050808382526020820190508260005b8581101561070257813585016106e88882610b4c565b8452602084019350602083019250506001810190506106d2565b5050509392505050565b600061071f61071a846113e1565b6112b4565b9050808382526020820190508260005b8581101561075f57813585016107458882610bdc565b84526020840193506020830192505060018101905061072f565b5050509392505050565b600061077c6107778461140d565b6112b4565b9050808382526020820190508260005b858110156107bc57813585016107a28882610c6c565b84526020840193506020830192505060018101905061078c565b5050509392505050565b60006107d96107d484611439565b6112b4565b905080828560208602820111156107ef57600080fd5b60005b8581101561081f57816108058882610cfc565b8452602084019350602083019250506001810190506107f2565b5050509392505050565b600061083c6108378461145f565b6112b4565b9050808285602086028201111561085257600080fd5b60005b8581101561088257816108688882610cfc565b845260208401935060208301925050600181019050610855565b5050509392505050565b600061089f61089a84611485565b6112b4565b905080838252602082019050828560208602820111156108be57600080fd5b60005b858110156108ee57816108d48882610cfc565b8452602084019350602083019250506001810190506108c1565b5050509392505050565b600061090b610906846114b1565b6112b4565b90508281526020810184848401111561092357600080fd5b61092e848285611545565b509392505050565b60008135905061094581611628565b92915050565b600082601f83011261095c57600080fd5b813561096c8482602086016104c3565b91505092915050565b600082601f83011261098657600080fd5b600361099384828561052f565b91505092915050565b600082601f8301126109ad57600080fd5b81356109bd848260208601610592565b91505092915050565b600082601f8301126109d757600080fd5b60056109e48482856105fe565b91505092915050565b600082601f8301126109fe57600080fd5b8135610a0e848260208601610652565b91505092915050565b600082601f830112610a2857600080fd5b8135610a388482602086016106af565b91505092915050565b600082601f830112610a5257600080fd5b8135610a6284826020860161070c565b91505092915050565b600082601f830112610a7c57600080fd5b8135610a8c848260208601610769565b91505092915050565b600082601f830112610aa657600080fd5b6003610ab38482856107c6565b91505092915050565b600082601f830112610acd57600080fd5b6004610ada848285610829565b91505092915050565b600082601f830112610af457600080fd5b8135610b0484826020860161088c565b91505092915050565b600081359050610b1c8161163f565b92915050565b600082601f830112610b3357600080fd5b8135610b438482602086016108f8565b91505092915050565b600060608284031215610b5e57600080fd5b610b6860606112b4565b9050600082013567ffffffffffffffff811115610b8457600080fd5b610b9084828501610b22565b6000830152506020610ba484828501610cfc565b602083015250604082013567ffffffffffffffff811115610bc457600080fd5b610bd084828501610b22565b60408301525092915050565b600060608284031215610bee57600080fd5b610bf860606112b4565b9050600082013567ffffffffffffffff811115610c1457600080fd5b610c2084828501610b22565b6000830152506020610c3484828501610cfc565b602083015250604082013567ffffffffffffffff811115610c5457600080fd5b610c6084828501610a17565b60408301525092915050565b600060608284031215610c7e57600080fd5b610c8860606112b4565b9050600082013567ffffffffffffffff811115610ca457600080fd5b610cb084828501610b22565b6000830152506020610cc484828501610cfc565b602083015250604082013567ffffffffffffffff811115610ce457600080fd5b610cf084828501610b4c565b60408301525092915050565b600081359050610d0b81611656565b92915050565b600060208284031215610d2357600080fd5b600082013567ffffffffffffffff811115610d3d57600080fd5b610d498482850161094b565b91505092915050565b60006101208284031215610d6557600080fd5b6000610d7384828501610975565b91505092915050565b6000806101408385031215610d9057600080fd5b6000610d9e85828601610975565b92505061012083013567ffffffffffffffff811115610dbc57600080fd5b610dc885828601610b22565b9150509250929050565b600060208284031215610de457600080fd5b600082013567ffffffffffffffff811115610dfe57600080fd5b610e0a8482850161099c565b91505092915050565b600060208284031215610e2557600080fd5b600082013567ffffffffffffffff811115610e3f57600080fd5b610e4b848285016109c6565b91505092915050565b600060208284031215610e6657600080fd5b600082013567ffffffffffffffff811115610e8057600080fd5b610e8c848285016109ed565b91505092915050565b60008060408385031215610ea857600080fd5b600083013567ffffffffffffffff811115610ec257600080fd5b610ece85828601610a41565b925050602083013567ffffffffffffffff811115610eeb57600080fd5b610ef785828601610b22565b9150509250929050565b60008060408385031215610f1457600080fd5b600083013567ffffffffffffffff811115610f2e57600080fd5b610f3a85828601610a6b565b9250506020610f4b85828601610b0d565b9150509250929050565b600060208284031215610f6757600080fd5b600082013567ffffffffffffffff811115610f8157600080fd5b610f8d84828501610ae3565b91505092915050565b60008060408385031215610fa957600080fd5b600083013567ffffffffffffffff811115610fc357600080fd5b610fcf85828601610ae3565b925050602083013567ffffffffffffffff811115610fec57600080fd5b610ff885828601610ae3565b9150509250929050565b60006020828403121561101457600080fd5b600082013567ffffffffffffffff81111561102e57600080fd5b61103a84828501610b22565b91505092915050565b6000806040838503121561105657600080fd5b600083013567ffffffffffffffff81111561107057600080fd5b61107c85828601610bdc565b925050602083013567ffffffffffffffff81111561109957600080fd5b6110a585828601610b22565b9150509250929050565b600080604083850312156110c257600080fd5b600083013567ffffffffffffffff8111156110dc57600080fd5b6110e885828601610c6c565b92505060206110f985828601610b0d565b9150509250929050565b6000806040838503121561111657600080fd5b600083013567ffffffffffffffff81111561113057600080fd5b61113c85828601610c6c565b925050602083013567ffffffffffffffff81111561115957600080fd5b61116585828601610b22565b9150509250929050565b60008060006060848603121561118457600080fd5b600084013567ffffffffffffffff81111561119e57600080fd5b6111aa86828701610c6c565b935050602084013567ffffffffffffffff8111156111c757600080fd5b6111d386828701610b22565b925050604084013567ffffffffffffffff8111156111f057600080fd5b6111fc86828701610b22565b9150509250925092565b60006020828403121561121857600080fd5b600061122684828501610cfc565b91505092915050565b600061123a826114e1565b61124481856114ec565b9350611254818560208601611554565b61125d81611617565b840191505092915050565b6112718161153b565b82525050565b60006020820190508181036000830152611291818461122f565b905092915050565b60006020820190506112ae6000830184611268565b92915050565b6000604051905081810181811067ffffffffffffffff821117156112db576112da6115e8565b5b8060405250919050565b600067ffffffffffffffff821115611300576112ff6115e8565b5b602082029050602081019050919050565b600067ffffffffffffffff82111561132c5761132b6115e8565b5b602082029050919050565b600067ffffffffffffffff821115611352576113516115e8565b5b602082029050602081019050919050565b600067ffffffffffffffff82111561137e5761137d6115e8565b5b602082029050919050565b600067ffffffffffffffff8211156113a4576113a36115e8565b5b602082029050602081019050919050565b600067ffffffffffffffff8211156113d0576113cf6115e8565b5b602082029050602081019050919050565b600067ffffffffffffffff8211156113fc576113fb6115e8565b5b602082029050602081019050919050565b600067ffffffffffffffff821115611428576114276115e8565b5b602082029050602081019050919050565b600067ffffffffffffffff821115611454576114536115e8565b5b602082029050919050565b600067ffffffffffffffff82111561147a576114796115e8565b5b602082029050919050565b600067ffffffffffffffff8211156114a05761149f6115e8565b5b602082029050602081019050919050565b600067ffffffffffffffff8211156114cc576114cb6115e8565b5b601f19601f8301169050602081019050919050565b600081519050919050565b600082825260208201905092915050565b60006115088261151b565b9050919050565b60008115159050919050565b600073ffffffffffffffffffffffffffffffffffffffff82169050919050565b6000819050919050565b82818337600083830152505050565b60005b83811015611572578082015181840152602081019050611557565b83811115611581576000848401525b50505050565b6000600282049050600182168061159f57607f821691505b602082108114156115b3576115b26115b9565b5b50919050565b7f4e487b7100000000000000000000000000000000000000000000000000000000600052602260045260246000fd5b7f4e487b7100000000000000000000000000000000000000000000000000000000600052604160045260246000fd5b6000601f19601f8301169050919050565b611631816114fd565b811461163c57600080fd5b50565b6116488161150f565b811461165357600080fd5b50565b61165f8161153b565b811461166a57600080fd5b5056fea2646970667358221220a91317dc245e075ee19edb8005c7f1b092bac21303a1ac0bf2ef5df26a073fb364736f6c63430008000033","linkReferences":{},"deployedLinkReferences":{},"source":"//SPDX-License-Identifier: Unlicense\npragma solidity ^0.8.0;\n\n\ncontract TestContractChanged {\n    uint private ourNum;\n    string private ourString;\n    // we inserted a comment here so that this contract is differently\n    // than what's stored in simba.json once it's compiled\n    // this helps us test the sourceCodeComparer\n    constructor(uint _ourNum, string memory _ourString) {\n        ourNum = _ourNum;\n        ourString = _ourString;\n    }\n\n    function getNum() public view returns (uint) {\n        return ourNum;\n    }\n\n    function setNum(uint _ourNum) public {\n        ourNum = _ourNum;\n    }\n\n    function getString() public view returns (string memory) {\n        return ourString;\n    }\n\n    function setString(string memory _ourString) public {\n        ourString = _ourString;\n    }\n\n    function anArr(uint[] memory first)\n    public {}\n\n    function twoArrs(uint[] memory first, uint[] memory second)\n    public {}\n\n    function addressArr(address[] memory first)\n    public {}\n\n    function nestedArr0(uint[][] memory first)\n    public {}\n\n    function nestedArr1(uint[][5] memory first)\n    public {}\n\n    function nestedArr2(uint[4][] memory first)\n    public {}\n\n    function nestedArr3(uint[3][3] memory first)\n    public {}\n\n    function nestedArr4(uint[3][3] memory first,\n        string memory _bundleHash)\n    public {}\n\n    struct Person{\n        string name;\n        uint age;\n        Addr addr;\n    }\n\n    struct Addr{\n        string street;\n        uint number;\n        string town;\n    }\n\n    struct AddressPerson{\n        string name;\n        uint age;\n        Addr[] addrs;\n    }\n\n    function structTest1 (\n        Person[] memory people,\n        bool test_bool\n        )\n    public {}\n\n    function structTest2 (\n        Person memory person,\n        bool test_bool\n        )\n    public {}\n\n    function structTest3 (\n        AddressPerson memory person,\n        string memory _bundleHash\n        )\n    public {}\n\n    function structTest4 (\n        AddressPerson[] memory persons,\n        string memory _bundleHash\n        )\n    public {}\n\n    function structTest5 (\n        Person memory person,\n        string memory _bundleHash\n        )\n    public {}\n\n    function nowT()\n    public {}\n\n    function clientContainer (\n        Person memory person,\n        string memory _bundleHash,\n        string memory _bundlePath\n        )\n    public {}\n\n}"}